{
  "address": "0x610178dA211FEF7D417bC0e6FeD39F05609AD788",
  "abi": [
    {
      "inputs": [
        {
          "internalType": "uint256",
          "name": "a",
          "type": "uint256"
        }
      ],
      "stateMutability": "nonpayable",
      "type": "constructor"
    },
    {
      "inputs": [],
      "name": "creation",
      "outputs": [
        {
          "internalType": "uint256",
          "name": "",
          "type": "uint256"
        }
      ],
      "stateMutability": "view",
      "type": "function"
    },
    {
      "inputs": [],
      "name": "myValue",
      "outputs": [
        {
          "internalType": "uint256",
          "name": "",
          "type": "uint256"
        }
      ],
      "stateMutability": "view",
      "type": "function"
    },
    {
      "inputs": [
        {
          "internalType": "uint256",
          "name": "_value",
          "type": "uint256"
        }
      ],
      "name": "set",
      "outputs": [],
      "stateMutability": "nonpayable",
      "type": "function"
    }
  ],
  "transactionHash": "0xb557b3c0014c4c86d01f24270fb27f21f2e669cba96b07c48728c5dcc6607f40",
  "args": [
    5
  ],
  "solcInputHash": "f518e12f49abeffe0507f2477504a0c7",
  "bytecode": "0x608060405234801561001057600080fd5b506040516101db3803806101db8339818101604052602081101561003357600080fd5b8101908080519060200190929190505050426001819055508060008190555050610179806100626000396000f3fe608060405234801561001057600080fd5b50600436106100415760003560e01c806313845d2f1461004657806347f1aae71461006457806360fe47b114610082575b600080fd5b61004e6100b0565b6040518082815260200191505060405180910390f35b61006c6100b6565b6040518082815260200191505060405180910390f35b6100ae6004803603602081101561009857600080fd5b81019080803590602001909291905050506100bc565b005b60015481565b60005481565b6206978060015401421015610139576040517f08c379a00000000000000000000000000000000000000000000000000000000081526004018080602001828103825260138152602001807f4e65656420746f2070617373203520646179730000000000000000000000000081525060200191505060405180910390fd5b806000819055505056fea264697066735822122013f0310e02bd3e72c59626d905b5c33b34775b903272bcd48a2bb44057be5bc764736f6c63430007030033",
  "devdoc": {
    "kind": "dev",
    "methods": {},
    "version": 1
  },
  "userdoc": {
    "kind": "user",
    "methods": {},
    "version": 1
  },
  "storageLayout": {
    "storage": [
      {
        "astId": 4,
        "contract": "contracts/MyContract.sol:MyContract",
        "label": "myValue",
        "offset": 0,
        "slot": "0",
        "type": "t_uint256"
      },
      {
        "astId": 6,
        "contract": "contracts/MyContract.sol:MyContract",
        "label": "creation",
        "offset": 0,
        "slot": "1",
        "type": "t_uint256"
      }
    ],
    "types": {
      "t_uint256": {
        "encoding": "inplace",
        "label": "uint256",
        "numberOfBytes": "32"
      }
    }
  }
}